:08000000803102288731FD2F39
:100E520022000C1521000C1108000130873158279F
:100E62008731F40100308731982787310800F0007C
:100E720024009513700891003F2F64002400141C75
:100E8200432F442F3E2F11080800F20022000C11BC
:100E920040308731382787317208873138278731C8
:100EA200710887313827873122000C150800F300BA
:100EB2006030F10012308731462787317308F10024
:100EC20013308731462787312030F10012308731C5
:100ED200462787310800F300E030F10012308731F5
:100EE200462787317308F10013308731462787314F
:100EF200A030F10012308731462787310800873150
:100F0200B627873187312927873187312E278731C5
:100F1200F40100308731982787310030F40088309F
:100F2200F5008731D7278731952F80310228F800C5
:100F32000230780203189E2F9F2FB52F78080319CD
:100F4200A32FA42FAA2FC0307404F5000030F6009E
:100F5200AF2F80307404F5000030F6007508F700FA
:100F62007708873158278731080022008E11210027
:100F72008E1122000E1221000E1622008E12210066
:100F82008E123C002108E0391438A1003D002308EC
:100F9200E0391038A3003C002008E0391338A000E3
:100FA2003D002508E0391138A5000800F901EC2FB1
:100FB2007508F7007408F600790876078400770848
:100FC2000318770A8500000887316C2787310130C2
:100FD200F6007608F9077508F7007408F600790834
:100FE2007607840077080318770A85001200031D2C
:100FF200FB2FFC2FD92F080020008731802F43348C
:0C1002006F34753463346F34753400347F
:020000040001F9
:08000000FF3FFF3FFF3FFF3F00
:04000E00EA3FFB1EAC
:00000001FF
