:0400000080317228B1
:100008007E1480316030F200EA30F3003A28013083
:1000180022008D008F010130F0070030F13D592892
:10002800023022008D000E28043022008D000E2898
:10003800083022008D000E2822008D0101308F002B
:100048000F2822008D0102308F000F2822008D0119
:1000580004308F000F2822008D0108308F000130F6
:10006800F0070030F13DF001F10159287108003A1C
:1000780003193F2859287008003A03190B28013A38
:1000880003191428033A03191828013A03191C28DC
:10009800073A03192028013A03192528033A0319B6
:1000A8002A28013A03192F285928200091100130D5
:1000B800F2070030F33D7308803AF400833074028D
:1000C800031D6828E9307202031C6B286C286E280F
:1000D800F201F301200091107E100900803174288C
:1000E800F001F101F201F3017E10200080317C283B
:1000F800FC302100990023008D018F0121008D0122
:100108008F0120001C149C109C151C129C121C139F
:100118001C159110F9309B008B170B1721009114B7
:06012800942880317228CA
:020000040001F9
:08000000FF3FFF3FFF3FFF3F00
:04000E00A43FFF1EEE
:00000001FF
